S024000054726166666963204C6967687420436F6E74726F6C2053797374656D2E7372656383
S11300000C942A000C944B050C9478050C94A505CB
S11300100C9447000C9447000C9447000C94470040
S11300200C9447000C9447000C9447070C94EB067F
S11300300C9447000C9447000C9447000C94470020
S11300400C9447000C9447000C9447000C94470010
S11300500C94470011241FBECFE5D8E0DEBFCDBF0E
S113006010E0A0E6B0E0E0E5F3E102C005900D92F7
S1130070A43BB107D9F720E0A4EBB0E001C01D9286
S1130080A73DB207E1F70E9497030C94A6090C94CC
S1130090000081E08093D500089581E08093D4002E
S11300A08091D200813051F018F08230C1F01CC030
S11300B08093D30081E08093D20016C09091D30046
S11300C0911106C08093D30082E08093D2000CC0CB
S11300D0923051F48093D3001092D20005C08093E3
S11300E0D30081E08093D2000E94E6028091D60082
S11300F090E0880F991F880F991F805A9F4F0E9484
S1130100760308950E941A020E94DF0540E062E02F
S113011083E00E949C0341E062E083E00E940E04BD
S113012088E790E00E94800480E00E94100540E08F
S113013060E070E089E490E00E94340580E690E09D
S11301400E9405031092D5001092D3001092D200A1
S113015081E08093D4000E94E6060E94D20581E0EB
S113016008958091D400882311F18091D30090E008
S1130170880F991F880F991F805A9F4F0E947603FA
S11301808091D20090E0880F991F880F991F805AA0
S11301909F4F0E94550320E030E04DE450E06CEAAC
S11301A07DE080E090E00E946E061092D4000895F5
S11301B00E94E60281E890E00E94F30283E08093CB
S11301C0D6008CE690E00E94550360ED77E080E075
S11301D090E00E94FF0508950E94E60282E990E003
S11301E00E94F3028091D20090E0880F991F880F3B
S11301F0991F805A9F4F0E9476038091D60090E009
S1130200880F991F880F991F805A9F4F0E94760369
S113021084E08093D60081E08093D20084E690E06D
S11302200E9455038091D60090E0880F991F880F93
S1130230991F805A9F4F0E9455036CEA7DE080E02D
S113024090E00E94FF0508950E94E60283EA90E090
S11302500E94F3028091D20090E0880F991F880FCA
S1130260991F805A9F4F0E9476038091D60090E098
S1130270880F991F880F991F805A9F4F0E947603F9
S11302801092D20085E08093D60080E690E00E9430
S113029055038091D60090E0880F991F880F991F0D
S11302A0805A9F4F0E9455036CEA7DE080E090E005
S11302B00E94FF0508950E94DA058091D2008823E8
S11302C019F0833050F403C00E94240106C00E9438
S11302D0D8000E94EC000E9424011092D5001092D4
S11302E0D30081E08093D2008093D4000E94D20591
S11302F008958091D500882319F0813021F005C03C
S11303000E94B10002C00E945B0181E0089540E0B8
S113031062E080E00E940E0483EC99E00197F1F71B
S113032000C0000041E062E080E00E940E040895F5
S1130330CF93DF93C82F40E061E080E00E940E0479
S1130340811167C041E062E00E940E04811161C026
S1130350DC2FD07F4D2F441F4427441F67E00E94A9
S11303600E04811156C0D6FB442740F966E00E9472
S11303700E0481114EC0D5FB442740F965E00E946C
S11303800E04811146C0D4FB442740F964E00E9466
S11303900E0481113EC00E94870189EF90E001970D
S11303A0F1F700C00000C295C07F4C2F441F4427C2
S11303B0441F67E080E00E940E0481112AC0C6FB3E
S11303C0442740F966E00E940E04811122C0C5FB57
S11303D0442740F965E00E940E0481111AC0C4FB51
S11303E0442740F964E00E940E04811112C089EF91
S11303F090E00197F1F700C0000040E062E080E087
S11304000E940E0489EF90E00197F1F700C000000C
S113041080E0DF91CF910895CF93C82F40E060E052
S113042080E00E940E04811103C08C2F0E94980169
S1130430CF91089541E060E080E00E949C03811127
S11304405DC041E061E00E949C03811157C041E01E
S113045062E00E949C03811151C041E067E00E9468
S11304609C0381114BC041E066E00E949C03811112
S113047045C041E065E00E949C0381113FC041E01A
S113048064E00E949C03811139C08DE292E20197DD
S1130490F1F700C0000083E30E940C0282E30E9493
S11304A00C0288E20E940C02811128C089EF90E0BE
S11304B00197F1F700C000008FE00E940C02811147
S11304C01DC089EF90E00197F1F700C0000081E0C2
S11304D00E940C02811112C083EF91E00197F1F7A1
S11304E000C0000086E00E940C02811107C089EF61
S11304F090E00197F1F700C0000080E00895CF93E9
S1130500DF93603140F5C62F811110C0D0E8D60FBB
S113051040E060E00E940E04811103C08D2F0E9410
S1130520980181111BC0C093B40018C08130A9F494
S1130530D0ECD60F40E060E080E00E940E04811110
S113054003C08D2F0E949801811108C060E16C0FD7
S11305506093B40003C080E001C080E0DF91CF91DC
S113056008958091B400803151F460E081E00E94EC
S11305707F028091B4008F5F8093B400089580322D
S113058089F440E060E080E00E940E04811103C021
S113059081E00E94980160E080E00E947F02109256
S11305A0B40008958F5F8093B4000895CF93C82F4B
S11305B00E94B10241E060E080E00E940E048111DB
S11305C003C08C2F0E949801CF91089540E060E011
S11305D080E00E940E04811103C081E00E94980112
S11305E01092B4000895CF93DF93EC01892B39F472
S11305F082E008C00E94D602811104C0219688813D
S11306008111F8CFDF91CF910895EF92FF921F935C
S1130610CF93DF930097E9F582E041C0C12FD0E08A
S1130620CC0FDD1FCC0FDD1FCE0DDF1D41E0698136
S113063088810E949C039A819C3089F48B818A3042
S113064031F4698140E088810E940E0420C08B301F
S1130650C9F4698141E088810E940E0418C09D306C
S113066099F48B818A3031F4698141E088810E9458
S11306700E040DC08B3051F4698140E088810E94E2
S11306800E0405C083E003C083E001C083E01F5F64
S113069003C07C0110E081E0163008F4BFCFDF9185
S11306A0CF911F91FF90EF900895CF93DF93009720
S11306B0B9F0EC0141E0698188810E949C038A8140
S11306C08C3031F4698140E088810E940E040BC0B3
S11306D08D3041F4698141E088810E940E0403C099
S11306E082E001C083E0DF91CF910895CF93DF933F
S11306F00097B9F0EC0141E0698188810E949C0374
S11307008A818C3031F4698141E088810E940E0431
S11307100BC08D3041F4698140E088810E940E0451
S113072003C082E001C083E0DF91CF9108950E946D
S113073082000E947901FDCF843008F067C06830E0
S113074008F066C0423008F065C08130E9F030F04E
S1130750823081F1833009F443C05EC081E090E0CF
S1130760062E02C0880F991F0A94E2F780952AB3D7
S11307702823842F90E002C0880F991F6A95E2F71E
S1130780822B8ABB80E0089521E030E0062E02C06F
S1130790220F331F0A94E2F7209587B32823842F6E
S11307A090E002C0880F991F6A95E2F7822B87BBFD
S11307B080E0089521E030E0062E02C0220F331FAE
S11307C00A94E2F7209584B32823842F90E002C092
S11307D0880F991F6A95E2F7822B84BB80E0089505
S11307E021E030E0062E02C0220F331F0A94E2F704
S11307F0209581B32823842F90E002C0880F991F8D
S11308006A95E2F7822B81BB80E0089583E0089526
S113081083E0089583E0089580E00895843008F02B
S113082067C0683008F066C0423008F065C08130A7
S1130830E9F030F0823081F1833009F443C05EC0C6
S113084081E090E0062E02C0880F991F0A94E2F717
S113085080952BB32823842F90E002C0880F991F22
S11308606A95E2F7822B8BBB80E0089521E030E0AB
S1130870062E02C0220F331F0A94E2F7209588B394
S11308802823842F90E002C0880F991F6A95E2F70D
S1130890822B88BB80E0089521E030E0062E02C060
S11308A0220F331F0A94E2F7209585B32823842F5F
S11308B090E002C0880F991F6A95E2F7822B85BBEE
S11308C080E0089521E030E0062E02C0220F331F9D
S11308D00A94E2F7209582B32823842F90E002C083
S11308E0880F991F6A95E2F7822B82BB80E00895F6
S11308F083E0089583E0089583E0089580E00895F7
S1130900AC01892B09F086C082E00895E92FF0E05C
S11309109F01220F331FE20FF31FE40FF51F208105
S1130920213081F120F0223009F457C06AC02181BE
S113093021116EC025B72C7F25BF2281213069F09B
S113094028F0223089F02330B1F05DC025B72E7F26
S113095025BF25B72D7F25BF5BC025B7216025BFE7
S113096025B72D7F25BF54C025B72E7F25BF25B7BA
S1130970226025BF4DC025B7216025BF25B7226061
S113098025BF46C02181211143C025B7237F25BF40
S11309902281213069F028F0223089F02330B1F02F
S11309A034C025B72B7F25BF25B7277F25BF30C08F
S11309B025B7246025BF25B7277F25BF29C025B7C4
S11309C02B7F25BF25B7286025BF22C025B724600B
S11309D025BF25B7286025BF1BC02181211118C060
S11309E024B72F7B24BF2281223019F0233029F031
S11309F00EC024B72F7B24BF0BC024B7206424BFB0
S1130A0007C083E005C083E003C083E001C083E046
S1130A109F5F02C090E081E0933008F477CF08959F
S1130A208330F0F4813061F018F0823089F01AC01C
S1130A308BB78F7B8BBF8BB780648BBF81E00895AE
S1130A408BB78F778BBF8BB780688BBF81E008959E
S1130A508BB78F7D8BBF8BB780628BBF81E008958E
S1130A6083E0089581E00895009789F0433088F485
S1130A7050E0440F551FFA01E554FF4F91838083E2
S1130A80FA01EB54FF4F7183608380E0089582E0A4
S1130A90089583E008951F920F920FB60F921124C8
S1130AA02F933F934F935F936F937F938F939F9372
S1130AB0AF93BF93EF93FF93E091BB00F091BC0021
S1130AC0309729F08091B5009091B6000995FF9177
S1130AD0EF91BF91AF919F918F917F916F915F91B2
S1130AE04F913F912F910F900FBE0F901F9018952B
S1130AF01F920F920FB60F9211242F933F934F938F
S1130B005F936F937F938F939F93AF93BF93EF9371
S1130B10FF93E091BD00F091BE00309729F08091E1
S1130B20B7009091B8000995FF91EF91BF91AF91F3
S1130B309F918F917F916F915F914F913F912F91F1
S1130B400F900FBE0F901F9018951F920F920FB623
S1130B500F9211242F933F934F935F936F937F933F
S1130B608F939F93AF93BF93EF93FF93E091BF0055
S1130B70F091C000309729F08091B9009091BA00AB
S1130B800995FF91EF91BF91AF919F918F917F91C3
S1130B906F915F914F913F912F910F900FBE0F90E6
S1130BA01F9018958FB78F778FBF8FB780688FBFCF
S1130BB080E008958FB78F778FBF80E0089583B763
S1130BC0877B83BF83B78F7B83BF83B7877F83BFD5
S1130BD083B7887F83BF83B7816083BF83B78D7FEB
S1130BE083BF83B7846083BF83B78F7C83BF83B79E
S1130BF08F7E83BF83B78F7D83BF80E008958F92FC
S1130C009F92AF92BF92CF92DF92EF92FF920E9497
S1130C1087082FE632E143E853E40E94E6074B01DC
S1130C205C010E9458086B017C010E9487089B01AB
S1130C30AC01C501B4010E9474074B015C0120E0C2
S1130C4030E0A9010E94E1078823A9F18FEFC81AB7
S1130C50D80AE80AF80A20E030E040E853E4C50185
S1130C60B4010E9439099B01AC0160E070E080E8A6
S1130C7093E40E9474070E94580862BF0BC008B630
S1130C8000FEFDCF88B7816088BF81E0C81AD10813
S1130C90E108F108C114D104E104F10481F714C09E
S1130CA008B600FEFDCF88B7816088BF4150510966
S1130CB06109710904C046E051E060E070E041154B
S1130CC051056105710561F780E0FF90EF90DF90B9
S1130CD0CF90BF90AF909F908F9008958F929F92E6
S1130CE0AF92BF92CF92DF92EF92FF920F931F9336
S1130CF0CF93DF93EA01890129B72E7F29BF0E9490
S1130D0087082FE632E143E853E40E94E6074B01EB
S1130D105C010E9458086B017C010E9487089B01BA
S1130D20AC01C501B4010E9474074B015C0120E0D1
S1130D3030E0A9010E94E107882319F18FEFC81A56
S1130D40D80AE80AF80A20E030E040E853E4C50194
S1130D50B4010E9439099B01AC0160E070E080E8B5
S1130D6093E40E9474070E945808C092C500D09270
S1130D70C600E092C700F092C8006093C90062BF49
S1130D8008C0C092C500D092C600E092C700F0929D
S1130D90C800209751F0D093D100C093D000109395
S1130DA0CF000093CE0080E001C082E099B791604B
S1130DB099BFDF91CF911F910F91FF90EF90DF903A
S1130DC0CF90BF90AF909F908F90089589B7816026
S1130DD089BF80E008951F920F920FB60F921124DD
S1130DE02F933F934F935F936F937F938F939F932F
S1130DF0AF93BF93EF93FF938091D0009091D10074
S1130E00892BA1F18091C1009091C200A091C300EF
S1130E10B091C4000196A11DB11D8093C1009093AF
S1130E20C200A093C300B093C4004091C500509188
S1130E30C6006091C7007091C80084179507A60783
S1130E40B707A1F48091C90082BFE091D000F0916E
S1130E50D1008091CE009091CF0009951092C100ED
S1130E601092C2001092C3001092C400FF91EF913F
S1130E70BF91AF919F918F917F916F915F914F91AE
S1130E803F912F910F900FBE0F901F9018951F92B6
S1130E900F920FB60F9211242F933F934F935F93AA
S1130EA06F937F938F939F93AF93BF93EF93FF932E
S1130EB0E091CC00F091CD00309729F08091CA00E8
S1130EC09091CB000995FF91EF91BF91AF919F91C4
S1130ED08F917F916F915F914F913F912F910F90DF
S1130EE00FBE0F901F9018955058BB27AA270E9439
S1130EF08C070C94FF080E94F10838F00E94F8084F
S1130F0020F039F49F3F19F426F40C94EE080EF403
S1130F10E095E7FB0C94E808E92F0E94100958F3C8
S1130F20BA17620773078407950720F079F4A6F5CA
S1130F300C9432090EF4E0950B2EBA2FA02D0B0160
S1130F40B90190010C01CA01A0011124FF27591B0A
S1130F5099F0593F50F4503E68F11A16F040A22F10
S1130F60232F342F4427585FF3CF46953795279581
S1130F70A795F0405395C9F77EF41F16BA0B620B80
S1130F80730B840BBAF09150A1F0FF0FBB1F661FC7
S1130F90771F881FC2F70EC0BA0F621F731F841F0A
S1130FA048F4879577956795B795F7959E3F08F030
S1130FB0B0CF9395880F08F09927EE0F97958795F2
S1130FC008950E94C40808F481E008950E94FA0775
S1130FD00C94FF080E94F80858F00E94F10840F0B1
S1130FE029F45F3F29F00C94E80851110C9433095B
S1130FF00C94EE080E94100968F39923B1F3552369
S113100091F3951B550BBB27AA2762177307840717
S113101038F09F5F5F4F220F331F441FAA1FA9F3AD
S113102035D00E2E3AF0E0E832D091505040E6959B
S1131030001CCAF72BD0FE2F29D0660F771F881FFC
S1131040BB1F261737074807AB07B0E809F0BB0BEF
S1131050802DBF01FF2793585F4F3AF09E3F510503
S113106078F00C94E8080C9433095F3FE4F3983E5D
S1131070D4F3869577956795B795F7959F5FC9F7EC
S1131080880F911D9695879597F90895E1E0660F6D
S1131090771F881FBB1F621773078407BA0720F0E6
S11310A0621B730B840BBA0BEE1F88F7E09508954F
S11310B00E94180988F09F5798F0B92F9927B751C3
S11310C0B0F0E1F0660F771F881F991F1AF0BA95E8
S11310D0C9F714C0B13091F00E943209B1E008950B
S11310E00C943209672F782F8827B85F39F0B93FFD
S11310F0CCF3869577956795B395D9F73EF490959B
S11311008095709561957F4F8F4F9F4F0895E89418
S113111009C097FB3EF490958095709561957F4F3B
S11311208F4F9F4F9923A9F0F92F96E9BB279395E9
S1131130F695879577956795B795F111F8CFFAF4F9
S1131140BB0F11F460FF1BC06F5F7F4F8F4F9F4F2A
S113115016C0882311F096E911C0772321F09EE888
S1131160872F762F05C0662371F096E8862F70E0EE
S113117060E02AF09A95660F771F881FDAF7880FC8
S11311809695879597F90895990F0008550FAA0B1E
S1131190E0E8FEEF16161706E807F907C0F0121686
S11311A01306E407F50798F0621B730B840B950B89
S11311B039F40A2661F0232B242B252B21F40895DE
S11311C00A2609F4A140A6958FEF811D811D08957B
S11311D097F99F6780E870E060E008959FEF80ECE6
S11311E0089500240A941616170618060906089589
S11311F000240A9412161306140605060895092EEF
S11312000394000C11F4882352F0BB0F40F4BF2B5D
S113121011F460FF04C06F5F7F4F8F4F9F4F08959D
S113122057FD9058440F551F59F05F3F71F0479593
S1131230880F97FB991F61F09F3F79F08795089578
S1131240121613061406551FF2CF4695F1DF08C097
S1131250161617061806991FF1CF869571056105B4
S113126008940895E894BB2766277727CB0197F95C
S113127008950E944C090C94FF080E94F10838F06C
S11312800E94F80820F0952311F00C94E8080C94BF
S1131290EE0811240C9433090E94100970F3959FF1
S11312A0C1F3950F50E0551F629FF001729FBB2759
S11312B0F00DB11D639FAA27F00DB11DAA1F649FF5
S11312C06627B00DA11D661F829F2227B00DA11DA8
S11312D0621F739FB00DA11D621F839FA00D611D2E
S11312E0221F749F3327A00D611D231F849F600D4F
S11312F0211D822F762F6A2F11249F5750409AF078
S1131300F1F088234AF0EE0FFF1FBB1F661F771F03
S1131310881F91505040A9F79E3F510580F00C94CE
S1131320E8080C9433095F3FE4F3983ED4F38695C0
S113133077956795B795F795E7959F5FC1F7FE2B6E
S1131340880F911D9695879597F90895F894FFCF86
S113135002000D0B02010D0B02020D0B02030D0B1B
S113136002040D0B02050D0B000002010100020135
S113137000202020202053544F50212120202020C1
S113138020002020202020235245414459202020A1
S113139020200020202020202424474F2424202003
S10713A020202000E5
S9030000FC
